{"abi":[{"type":"constructor","inputs":[],"stateMutability":"nonpayable"},{"type":"function","name":"getTokens","inputs":[{"name":"matricula","type":"string","internalType":"string"}],"outputs":[{"name":"","type":"uint256","internalType":"uint256"}],"stateMutability":"view"},{"type":"function","name":"login","inputs":[{"name":"matricula","type":"string","internalType":"string"},{"name":"password","type":"string","internalType":"string"}],"outputs":[{"name":"","type":"uint256","internalType":"uint256"}],"stateMutability":"nonpayable"},{"type":"function","name":"owner","inputs":[],"outputs":[{"name":"","type":"address","internalType":"address"}],"stateMutability":"view"},{"type":"function","name":"registrarAlumno","inputs":[{"name":"matricula","type":"string","internalType":"string"},{"name":"password","type":"string","internalType":"string"}],"outputs":[],"stateMutability":"nonpayable"}],"bytecode":{"object":"0x6080604052348015600e575f5ffd5b503360015f6101000a81548173ffffffffffffffffffffffffffffffffffffffff021916908373ffffffffffffffffffffffffffffffffffffffff160217905550610d688061005c5f395ff3fe608060405234801561000f575f5ffd5b506004361061004a575f3560e01c806358467dbc1461004e5780638da5cb5b1461007e578063a4e870311461009c578063a65dd261146100b8575b5f5ffd5b610068600480360381019061006391906105aa565b6100e8565b6040516100759190610638565b60405180910390f35b6100866102c6565b6040516100939190610690565b60405180910390f35b6100b660048036038101906100b191906105aa565b6102eb565b005b6100d260048036038101906100cd91906106a9565b610434565b6040516100df9190610638565b60405180910390f35b5f5f5f846040516100f99190610742565b90815260200160405180910390205f01805461011490610785565b905003610156576040517f08c379a000000000000000000000000000000000000000000000000000000000815260040161014d9061080f565b60405180910390fd5b816040516020016101679190610742565b604051602081830303815290604052805190602001205f8460405161018c9190610742565b90815260200160405180910390205f016040516020016101ac91906108bf565b6040516020818303038152906040528051906020012014610202576040517f08c379a00000000000000000000000000000000000000000000000000000000081526004016101f99061091f565b60405180910390fd5b60025f846040516102139190610742565b9081526020016040518091039020600101541015610266576040517f08c379a000000000000000000000000000000000000000000000000000000000815260040161025d90610987565b60405180910390fd5b60025f846040516102779190610742565b90815260200160405180910390206001015f82825461029691906109d2565b925050819055505f836040516102ac9190610742565b908152602001604051809103902060010154905092915050565b60015f9054906101000a900473ffffffffffffffffffffffffffffffffffffffff1681565b60015f9054906101000a900473ffffffffffffffffffffffffffffffffffffffff1673ffffffffffffffffffffffffffffffffffffffff163373ffffffffffffffffffffffffffffffffffffffff161461037a576040517f08c379a000000000000000000000000000000000000000000000000000000000815260040161037190610a4f565b60405180910390fd5b5f5f8360405161038a9190610742565b908152602001604051809103902060010154146103dc576040517f08c379a00000000000000000000000000000000000000000000000000000000081526004016103d390610ab7565b60405180910390fd5b6040518060400160405280828152602001600a8152505f836040516104019190610742565b90815260200160405180910390205f820151815f0190816104229190610c63565b50602082015181600101559050505050565b5f5f826040516104449190610742565b9081526020016040518091039020600101549050919050565b5f604051905090565b5f5ffd5b5f5ffd5b5f5ffd5b5f5ffd5b5f601f19601f8301169050919050565b7f4e487b71000000000000000000000000000000000000000000000000000000005f52604160045260245ffd5b6104bc82610476565b810181811067ffffffffffffffff821117156104db576104da610486565b5b80604052505050565b5f6104ed61045d565b90506104f982826104b3565b919050565b5f67ffffffffffffffff82111561051857610517610486565b5b61052182610476565b9050602081019050919050565b828183375f83830152505050565b5f61054e610549846104fe565b6104e4565b90508281526020810184848401111561056a57610569610472565b5b61057584828561052e565b509392505050565b5f82601f8301126105915761059061046e565b5b81356105a184826020860161053c565b91505092915050565b5f5f604083850312156105c0576105bf610466565b5b5f83013567ffffffffffffffff8111156105dd576105dc61046a565b5b6105e98582860161057d565b925050602083013567ffffffffffffffff81111561060a5761060961046a565b5b6106168582860161057d565b9150509250929050565b5f819050919050565b61063281610620565b82525050565b5f60208201905061064b5f830184610629565b92915050565b5f73ffffffffffffffffffffffffffffffffffffffff82169050919050565b5f61067a82610651565b9050919050565b61068a81610670565b82525050565b5f6020820190506106a35f830184610681565b92915050565b5f602082840312156106be576106bd610466565b5b5f82013567ffffffffffffffff8111156106db576106da61046a565b5b6106e78482850161057d565b91505092915050565b5f81519050919050565b5f81905092915050565b8281835e5f83830152505050565b5f61071c826106f0565b61072681856106fa565b9350610736818560208601610704565b80840191505092915050565b5f61074d8284610712565b915081905092915050565b7f4e487b71000000000000000000000000000000000000000000000000000000005f52602260045260245ffd5b5f600282049050600182168061079c57607f821691505b6020821081036107af576107ae610758565b5b50919050565b5f82825260208201905092915050565b7f4d6174726963756c61206e6f20657869737465000000000000000000000000005f82015250565b5f6107f96013836107b5565b9150610804826107c5565b602082019050919050565b5f6020820190508181035f830152610826816107ed565b9050919050565b5f819050815f5260205f209050919050565b5f815461084b81610785565b61085581866106fa565b9450600182165f811461086f5760018114610884576108b6565b60ff19831686528115158202860193506108b6565b61088d8561082d565b5f5b838110156108ae5781548189015260018201915060208101905061088f565b838801955050505b50505092915050565b5f6108ca828461083f565b915081905092915050565b7f50617373776f726420696e636f72726563746f000000000000000000000000005f82015250565b5f6109096013836107b5565b9150610914826108d5565b602082019050919050565b5f6020820190508181035f830152610936816108fd565b9050919050565b7f4e6f207469656e657320746f6b656e7320737566696369656e746573000000005f82015250565b5f610971601c836107b5565b915061097c8261093d565b602082019050919050565b5f6020820190508181035f83015261099e81610965565b9050919050565b7f4e487b71000000000000000000000000000000000000000000000000000000005f52601160045260245ffd5b5f6109dc82610620565b91506109e783610620565b92508282039050818111156109ff576109fe6109a5565b5b92915050565b7f536f6c6f20656c2061646d696e207075656465207265676973747261720000005f82015250565b5f610a39601d836107b5565b9150610a4482610a05565b602082019050919050565b5f6020820190508181035f830152610a6681610a2d565b9050919050565b7f416c756d6e6f20796120657869737465000000000000000000000000000000005f82015250565b5f610aa16010836107b5565b9150610aac82610a6d565b602082019050919050565b5f6020820190508181035f830152610ace81610a95565b9050919050565b5f6020601f8301049050919050565b5f82821b905092915050565b5f60088302610b1f7fffffffffffffffffffffffffffffffffffffffffffffffffffffffffffffffff82610ae4565b610b298683610ae4565b95508019841693508086168417925050509392505050565b5f819050919050565b5f610b64610b5f610b5a84610620565b610b41565b610620565b9050919050565b5f819050919050565b610b7d83610b4a565b610b91610b8982610b6b565b848454610af0565b825550505050565b5f5f905090565b610ba8610b99565b610bb3818484610b74565b505050565b5b81811015610bd657610bcb5f82610ba0565b600181019050610bb9565b5050565b601f821115610c1b57610bec8161082d565b610bf584610ad5565b81016020851015610c04578190505b610c18610c1085610ad5565b830182610bb8565b50505b505050565b5f82821c905092915050565b5f610c3b5f1984600802610c20565b1980831691505092915050565b5f610c538383610c2c565b9150826002028217905092915050565b610c6c826106f0565b67ffffffffffffffff811115610c8557610c84610486565b5b610c8f8254610785565b610c9a828285610bda565b5f60209050601f831160018114610ccb575f8415610cb9578287015190505b610cc38582610c48565b865550610d2a565b601f198416610cd98661082d565b5f5b82811015610d0057848901518255600182019150602085019450602081019050610cdb565b86831015610d1d5784890151610d19601f891682610c2c565b8355505b6001600288020188555050505b50505050505056fea2646970667358221220ec25bbe70aee345af88b3edd681af1479621109a50c264ca3768d6c836d20b9d64736f6c634300081d0033","linkReferences":{}},"methodIdentifiers":{"getTokens(string)":"a65dd261","login(string,string)":"58467dbc","owner()":"8da5cb5b","registrarAlumno(string,string)":"a4e87031"},"id":0}